{
  "transactions": [
    {
      "hash": "0xb73bf33ea89654b11d23e74f48390b8e4079e775fb1ed86f1acd0ec8d6f48a82",
      "transactionType": "CREATE",
      "contractName": "CircleRegistry",
      "contractAddress": "0x2168efddb51ba92e7dfbb8af6ec480c54f3357b9",
      "function": null,
      "arguments": [
        "0xe7179eb096002cbda21124a840f7dcEF264aa1b5",
        "0x0289E2C7129BFBcCa50465eCF631aBb0EeA39A10"
      ],
      "transaction": {
        "from": "0xe7179eb096002cbda21124a840f7dcef264aa1b5",
        "gas": "0x1929ff",
        "value": "0x0",
        "input": "0x6080346200009d57601f6200169d38819003918201601f19168301916001600160401b03831184841017620000a15780849260409485528339810103126200009d5780620000516200008c92620000b5565b906001600160a01b03906200006990602001620000b5565b1660018060a01b031960015416176001556200008581620000ca565b506200013a565b506040516114829081620001db8239f35b5f80fd5b634e487b7160e01b5f52604160045260245ffd5b51906001600160a01b03821682036200009d57565b6001600160a01b03165f8181525f805160206200167d833981519152602052604090205460ff1662000135575f8181525f805160206200167d83398151915260205260408120805460ff191660011790553391905f805160206200165d8339815191528180a4600190565b505f90565b6001600160a01b03165f8181527fe04a19e441c2d837ffbccf747ecafb402dd559d93b5d9dab8c707596e203bcaa60205260409020547f367bc2ad66819a4f9bbe4a6c68debd212b0f4422901a1c97de96b3cdb3fc7708919060ff16620001d457815f525f60205260405f20815f5260205260405f20600160ff1982541617905533915f805160206200165d8339815191525f80a4600190565b50505f9056fe6080806040526004361015610012575f80fd5b60e05f3560e01c91826301ffc9a714610fdc5750816310ad56b314610f88578163208f43c814610bec57816322828cc214610bc4578163248a9ca314610b985781632f2ff15d14610b5c57816333abefcb14610b2257816336568abe14610adb5781633c33ff3814610a4e5781634092e2c21461096157816343ff4541146109465781634a5ca2e31461091357816357afd89e146108f8578163580cf156146108dd5781637b641fbc1461083457816391d14854146107ec57816393f36bd8146107c25781639a7374861461070f578163a217fddf146106f5578163b47018891461067b578163b9305353146105f3578163ba532788146105d8578163bf5d0ec2146105bd578163c4194fd41461043c578163d547741f146103fe578163deeb9457146102b057508063e1f2dfce14610293578063e6514cb0146101de5763f68b83cd1461015e575f80fd5b346101da5760203660031901126101da5760043561017a6110ee565b805f52600260205260405f206005810154156101c157600401805460ff191690557f4754cdc1bd548a35bf8ea027254fc826c9c49910ec9477f263f837ff1cedd15d5f80a2005b60405163e6cf7fe760e01b815260048101839052602490fd5b5f80fd5b346101da5760603660031901126101da576004356024356044356102006110ee565b825f52600260205260405f2060058101541561027a5760ff600482015416156102615791816040926003858460027f15084dd5993117929a6def2bc1b378c8fdfaef435df1c5621ab4fc2963ded93e980155015582519182526020820152a2005b6040516333b858c560e21b815260048101859052602490fd5b60405163e6cf7fe760e01b815260048101859052602490fd5b346101da575f3660031901126101da576020600454604051908152f35b346101da57602090816003193601126101da576004355f526002825260405f20918254926001916001820160405180945f908354936102ee85611080565b94858552866001821691825f146103dc5750506001146103a0575b505061031c9250969493929603836110b8565b6002810154906003810154600560ff60048401541692015492604051978896875260c0818801528551958660c08901525f985b878a106103885750505060e096505f878688010152604086015260608501521515608084015260a0830152601f80199101168101030190f35b8982018301518b8b01820152988201988a985061034f565b8592505f52815f20905f915b8583106103c457505061031c93508201018880610309565b8054838a0185015288945086939092019181016103ac565b925093505061031c94915060ff191682840152151560051b8201018880610309565b346101da5760403660031901126101da5761043a60043561041d61102f565b90805f525f602052610435600160405f200154611167565b611204565b005b346101da576020806003193601126101da5760043590815f526002815260405f206005810154156105a45760ff6004820154161561058b576001546040516303d3b32360e51b815233600482015291908390839060249082906001600160a01b03165afa918215610580575f92610550575b506003015490818110610532575050815f52600381526104d13360405f20611310565b1561051357600690335f52526104ea8160405f20611310565b5033907fc35a658cae4be07e567f54239b7d58105ebfe0f270f017b04df5957adcb26aad5f80a3005b6040516327ad186f60e11b815260048101839052336024820152604490fd5b60449250604051916322df051360e11b835260048301526024820152fd5b9091508281813d8311610579575b61056881836110b8565b810103126101da57519060036104ae565b503d61055e565b6040513d5f823e3d90fd5b6040516333b858c560e21b815260048101849052602490fd5b60405163e6cf7fe760e01b815260048101849052602490fd5b346101da575f3660031901126101da57602060405160028152f35b346101da575f3660031901126101da57602060405160108152f35b346101da575f3660031901126101da57604051806004549182815260208091019260045f527f8a35acfbc15ff81a39ae7d344fd709f28e8600b4aa8c65c6b64bfe7fe36bd19b915f905b8282106106645761066085610654818903826110b8565b60405191829182611045565b0390f35b83548652948501946001938401939091019061063d565b346101da576020806003193601126101da576004356001600160a01b038116908190036101da575f52600660205260405f20906040519081602084549182815201935f5260205f20915f905b8282106106de5761066085610654818903826110b8565b8354865294850194600193840193909101906106c7565b346101da575f3660031901126101da5760206040515f8152f35b346101da5760403660031901126101da5760043561072b61102f565b906107346110ee565b5f8181526003602052604090206001600160a01b0383169290610758908490611373565b1561079a5750815f5260066020526107738160405f20611373565b507f0b83470ddeea5a3c2a6523cb7d745b1aa0a33648a7ad9d2c02681b4de1577d2d5f80a3005b6040516340af4bbf60e11b815260048101929092526001600160a01b03166024820152604490fd5b346101da5760203660031901126101da576004355f526003602052602060405f2054604051908152f35b346101da5760403660031901126101da5761080561102f565b6004355f525f60205260405f209060018060a01b03165f52602052602060ff60405f2054166040519015158152f35b346101da576020806003193601126101da576004355f526003815260405f20604051908183825491828152019081925f52845f20905f5b868282106108c9578686610881828803836110b8565b60405192839281840190828552518091526040840192915f5b8281106108a957505050500390f35b83516001600160a01b03168552869550938101939281019260010161089a565b83548552909301926001928301920161086b565b346101da575f3660031901126101da57602060405160048152f35b346101da575f3660031901126101da57602060405160088152f35b346101da5760403660031901126101da576004355f5260026020526020602435600260405f200154161515604051908152f35b346101da575f3660031901126101da57602060405160018152f35b346101da5760403660031901126101da5760043561097d61102f565b906109866110ee565b805f52600260205260405f206005810154156101c1576004015460ff1615610a36575f8181526003602052604090206001600160a01b03831692906109cc908490611310565b15610a0e5750815f5260066020526109e78160405f20611310565b507fc35a658cae4be07e567f54239b7d58105ebfe0f270f017b04df5957adcb26aad5f80a3005b6040516327ad186f60e11b815260048101929092526001600160a01b03166024820152604490fd5b602490604051906333b858c560e21b82526004820152fd5b346101da5760203660031901126101da57600435805f526003602052610a7860405f203390611373565b15610abb57335f526006602052610a928160405f20611373565b5033907f0b83470ddeea5a3c2a6523cb7d745b1aa0a33648a7ad9d2c02681b4de1577d2d5f80a3005b6040516340af4bbf60e11b81526004810191909152336024820152604490fd5b346101da5760403660031901126101da57610af461102f565b336001600160a01b03821603610b105761043a90600435611204565b60405163334bd91960e11b8152600490fd5b346101da575f3660031901126101da5760206040517f367bc2ad66819a4f9bbe4a6c68debd212b0f4422901a1c97de96b3cdb3fc77088152f35b346101da5760403660031901126101da5761043a600435610b7b61102f565b90805f525f602052610b93600160405f200154611167565b611188565b346101da5760203660031901126101da576004355f525f6020526020600160405f200154604051908152f35b346101da575f3660031901126101da576001546040516001600160a01b039091168152602090f35b346101da5760603660031901126101da5760043567ffffffffffffffff8082116101da57366023830112156101da57808260040135116101da57602436818460040135850101116101da57610c3f6110ee565b826004013515610f7657803515610f6057604051602081019084600401358386018337610c8c605482876004013581014260208201523360601b60408201520360348101845201826110b8565b51902091825f526002602052600560405f200154610f495760405160c0810181811083821117610f365760405283815260405191610cd86020601f19601f8960040135011601846110b8565b600486013580845284870160208501375f602087600401358501015260208201928352833560408301526044356060830152600160808301524260a0830152845f52600260205260405f209282518455518051918211610f2357610d3f6001850154611080565b601f8111610edf575b509160209693918695938890601f8311600114610e41577f4e3d7fddb72261dee09f9c9211eed05dcd10bfa87c875c25605d1b287084acaf969593836080969460059460a0945f92610e36575b50508160011b915f199060031b1c19161760018501555b60408101516002850155606081015160038501556004840186820151151560ff801983541691161790550151910155610de48561129f565b5060405192839160608352816004013560608401528160040135818301858501375f8483600401358501015235888301526044356040830152601f8019916004013501168101030190a2604051908152f35b015190508d80610d95565b60018594939298979695015f52895f20905f5b601f1984168110610ec557509260018360a0937f4e3d7fddb72261dee09f9c9211eed05dcd10bfa87c875c25605d1b287084acaf9a9b6080999897600597601f19811610610ead575b505050811b016001850155610dac565b01515f1960f88460031b161c191690558d8080610e9d565b818a01518355988b01988a98506001909201918b01610e54565b600185015f5260205f20601f840160051c810160208510610f1c575b601f830160051c82018110610f11575050610d48565b5f8155600101610efb565b5080610efb565b84634e487b7160e01b5f5260416004525ffd5b83634e487b7160e01b5f5260416004525ffd5b509060405190631879445960e31b82526004820152fd5b60405163a06356f560e01b815281356004820152fd5b604051632ef1310560e01b8152600490fd5b346101da5760403660031901126101da576020610fd2610fa661102f565b6004355f9081526003845260408082206001600160a01b03909316825260019092016020522054151590565b6040519015158152f35b346101da5760203660031901126101da576004359063ffffffff60e01b82168092036101da57602091637965db0b60e01b811490811561101e575b5015158152f35b6301ffc9a760e01b14905083611017565b602435906001600160a01b03821682036101da57565b60209060206040818301928281528551809452019301915f5b82811061106c575050505090565b83518552938101939281019260010161105e565b90600182811c921680156110ae575b602083101461109a57565b634e487b7160e01b5f52602260045260245ffd5b91607f169161108f565b90601f8019910116810190811067ffffffffffffffff8211176110da57604052565b634e487b7160e01b5f52604160045260245ffd5b335f9081527fe04a19e441c2d837ffbccf747ecafb402dd559d93b5d9dab8c707596e203bcaa60205260409020547f367bc2ad66819a4f9bbe4a6c68debd212b0f4422901a1c97de96b3cdb3fc77089060ff16156111495750565b6044906040519063e2517d3f60e01b82523360048301526024820152fd5b805f525f60205260405f20335f5260205260ff60405f205416156111495750565b90815f525f60205260405f209060018060a01b031690815f5260205260ff60405f205416155f146111fe57815f525f60205260405f20815f5260205260405f20600160ff1982541617905533917f2f8788117e7eff1d82e926ec794901d17c78024a50270940304540a733656f0d5f80a4600190565b50505f90565b90815f525f60205260405f209060018060a01b031690815f5260205260ff60405f2054165f146111fe57815f525f60205260405f20815f5260205260405f2060ff19815416905533917ff6391f5c32d9c69d2a47ea670b442974b53935d1edc7fd64eb21e047a839171b5f80a4600190565b805482101561128b575f5260205f2001905f90565b634e487b7160e01b5f52603260045260245ffd5b805f52600560205260405f2054155f1461130b57600454600160401b8110156110da57600181018060045581101561128b5781907f8a35acfbc15ff81a39ae7d344fd709f28e8600b4aa8c65c6b64bfe7fe36bd19b0155600454905f52600560205260405f2055600190565b505f90565b5f8281526001820160205260409020546111fe57805490600160401b8210156110da578261135e611348846001809601855584611276565b819391549060031b91821b915f19901b19161790565b90558054925f520160205260405f2055600190565b906001820191815f528260205260405f2054908115155f14611444575f199180830181811161143057825490848201918211611430578181036113fb575b505050805480156113e7578201916113c98383611276565b909182549160031b1b19169055555f526020525f6040812055600190565b634e487b7160e01b5f52603160045260245ffd5b61141b61140b6113489386611276565b90549060031b1c92839286611276565b90555f528460205260405f20555f80806113b1565b634e487b7160e01b5f52601160045260245ffd5b505050505f9056fea26469706673582212201354c0ebbd19110d61c622b8232acd7547a05e1dd0fec801d02a4f2b148b605b64736f6c634300081800332f8788117e7eff1d82e926ec794901d17c78024a50270940304540a733656f0dad3228b676f7d3cd4284a5443f17f1962b36e491b30a40b2405849e597ba5fb5000000000000000000000000e7179eb096002cbda21124a840f7dcef264aa1b50000000000000000000000000289e2c7129bfbcca50465ecf631abb0eea39a10",
        "nonce": "0x5a",
        "chainId": "0x13882"
      },
      "additionalContracts": [],
      "isFixedGasLimit": false
    },
    {
      "hash": "0x406286bc6e03000ada6d7cc11cdae4d64f0fd37e0a997f00175007f9b6397f51",
      "transactionType": "CALL",
      "contractName": "CircleRegistry",
      "contractAddress": "0x2168efddb51ba92e7dfbb8af6ec480c54f3357b9",
      "function": "createCircle(string,uint256,uint256)",
      "arguments": [
        "Oracle",
        "1",
        "100000000000000000000"
      ],
      "transaction": {
        "from": "0xe7179eb096002cbda21124a840f7dcef264aa1b5",
        "to": "0x2168efddb51ba92e7dfbb8af6ec480c54f3357b9",
        "gas": "0x4cc79",
        "value": "0x0",
        "input": "0x208f43c8000000000000000000000000000000000000000000000000000000000000006000000000000000000000000000000000000000000000000000000000000000010000000000000000000000000000000000000000000000056bc75e2d6310000000000000000000000000000000000000000000000000000000000000000000064f7261636c650000000000000000000000000000000000000000000000000000",
        "nonce": "0x5b",
        "chainId": "0x13882"
      },
      "additionalContracts": [],
      "isFixedGasLimit": false
    },
    {
      "hash": "0xd37a7cdb5b70df31f9f27e449d048035e59f2a092e5f8da7e838c90b70e75f0f",
      "transactionType": "CALL",
      "contractName": "CircleRegistry",
      "contractAddress": "0x2168efddb51ba92e7dfbb8af6ec480c54f3357b9",
      "function": "createCircle(string,uint256,uint256)",
      "arguments": [
        "Governance",
        "2",
        "200000000000000000000"
      ],
      "transaction": {
        "from": "0xe7179eb096002cbda21124a840f7dcef264aa1b5",
        "to": "0x2168efddb51ba92e7dfbb8af6ec480c54f3357b9",
        "gas": "0x4b352",
        "value": "0x0",
        "input": "0x208f43c80000000000000000000000000000000000000000000000000000000000000060000000000000000000000000000000000000000000000000000000000000000200000000000000000000000000000000000000000000000ad78ebc5ac6200000000000000000000000000000000000000000000000000000000000000000000a476f7665726e616e636500000000000000000000000000000000000000000000",
        "nonce": "0x5c",
        "chainId": "0x13882"
      },
      "additionalContracts": [],
      "isFixedGasLimit": false
    },
    {
      "hash": "0x29a5b7e87ff121ccfe9ad2538db595e5df07334cc005658af6bc0ba9de53f0e7",
      "transactionType": "CALL",
      "contractName": "CircleRegistry",
      "contractAddress": "0x2168efddb51ba92e7dfbb8af6ec480c54f3357b9",
      "function": "createCircle(string,uint256,uint256)",
      "arguments": [
        "Protocol Rules",
        "4",
        "150000000000000000000"
      ],
      "transaction": {
        "from": "0xe7179eb096002cbda21124a840f7dcef264aa1b5",
        "to": "0x2168efddb51ba92e7dfbb8af6ec480c54f3357b9",
        "gas": "0x4b3a5",
        "value": "0x0",
        "input": "0x208f43c80000000000000000000000000000000000000000000000000000000000000060000000000000000000000000000000000000000000000000000000000000000400000000000000000000000000000000000000000000000821ab0d4414980000000000000000000000000000000000000000000000000000000000000000000e50726f746f636f6c2052756c6573000000000000000000000000000000000000",
        "nonce": "0x5d",
        "chainId": "0x13882"
      },
      "additionalContracts": [],
      "isFixedGasLimit": false
    },
    {
      "hash": "0x9c3575ec36043a24b196f14391b405c94cded113427562ba798484c2e60a4b15",
      "transactionType": "CALL",
      "contractName": "CircleRegistry",
      "contractAddress": "0x2168efddb51ba92e7dfbb8af6ec480c54f3357b9",
      "function": "createCircle(string,uint256,uint256)",
      "arguments": [
        "Dispute Resolution",
        "8",
        "300000000000000000000"
      ],
      "transaction": {
        "from": "0xe7179eb096002cbda21124a840f7dcef264aa1b5",
        "to": "0x2168efddb51ba92e7dfbb8af6ec480c54f3357b9",
        "gas": "0x4b3ec",
        "value": "0x0",
        "input": "0x208f43c80000000000000000000000000000000000000000000000000000000000000060000000000000000000000000000000000000000000000000000000000000000800000000000000000000000000000000000000000000001043561a8829300000000000000000000000000000000000000000000000000000000000000000001244697370757465205265736f6c7574696f6e0000000000000000000000000000",
        "nonce": "0x5e",
        "chainId": "0x13882"
      },
      "additionalContracts": [],
      "isFixedGasLimit": false
    },
    {
      "hash": "0x125719a8709ea4097539997736c8558d87f7df8308ccea9ad3b1b2dba40f70d9",
      "transactionType": "CALL",
      "contractName": "CircleRegistry",
      "contractAddress": "0x2168efddb51ba92e7dfbb8af6ec480c54f3357b9",
      "function": "createCircle(string,uint256,uint256)",
      "arguments": [
        "Community",
        "16",
        "50000000000000000000"
      ],
      "transaction": {
        "from": "0xe7179eb096002cbda21124a840f7dcef264aa1b5",
        "to": "0x2168efddb51ba92e7dfbb8af6ec480c54f3357b9",
        "gas": "0x47067",
        "value": "0x0",
        "input": "0x208f43c800000000000000000000000000000000000000000000000000000000000000600000000000000000000000000000000000000000000000000000000000000010000000000000000000000000000000000000000000000002b5e3af16b18800000000000000000000000000000000000000000000000000000000000000000009436f6d6d756e6974790000000000000000000000000000000000000000000000",
        "nonce": "0x5f",
        "chainId": "0x13882"
      },
      "additionalContracts": [],
      "isFixedGasLimit": false
    }
  ],
  "receipts": [
    {
      "status": "0x1",
      "cumulativeGasUsed": "0x135b62",
      "logs": [
        {
          "address": "0x2168efddb51ba92e7dfbb8af6ec480c54f3357b9",
          "topics": [
            "0x2f8788117e7eff1d82e926ec794901d17c78024a50270940304540a733656f0d",
            "0x0000000000000000000000000000000000000000000000000000000000000000",
            "0x000000000000000000000000e7179eb096002cbda21124a840f7dcef264aa1b5",
            "0x000000000000000000000000e7179eb096002cbda21124a840f7dcef264aa1b5"
          ],
          "data": "0x",
          "blockHash": "0x8e01924cd8a906118e6cc1081d26359703c5b40bc950f96b5dbfff54f2aaa81b",
          "blockNumber": "0x1daa135",
          "blockTimestamp": "0x694c56c7",
          "transactionHash": "0xd37a7cdb5b70df31f9f27e449d048035e59f2a092e5f8da7e838c90b70e75f0f",
          "transactionIndex": "0x0",
          "logIndex": "0x0",
          "removed": false
        },
        {
          "address": "0x2168efddb51ba92e7dfbb8af6ec480c54f3357b9",
          "topics": [
            "0x2f8788117e7eff1d82e926ec794901d17c78024a50270940304540a733656f0d",
            "0x367bc2ad66819a4f9bbe4a6c68debd212b0f4422901a1c97de96b3cdb3fc7708",
            "0x000000000000000000000000e7179eb096002cbda21124a840f7dcef264aa1b5",
            "0x000000000000000000000000e7179eb096002cbda21124a840f7dcef264aa1b5"
          ],
          "data": "0x",
          "blockHash": "0x8e01924cd8a906118e6cc1081d26359703c5b40bc950f96b5dbfff54f2aaa81b",
          "blockNumber": "0x1daa135",
          "blockTimestamp": "0x694c56c7",
          "transactionHash": "0xd37a7cdb5b70df31f9f27e449d048035e59f2a092e5f8da7e838c90b70e75f0f",
          "transactionIndex": "0x0",
          "logIndex": "0x1",
          "removed": false
        },
        {
          "address": "0x0000000000000000000000000000000000001010",
          "topics": [
            "0x4dfe1bbbcf077ddc3e01291eea2d5c70c2b422b415d95645b9adcfd678cb1d63",
            "0x0000000000000000000000000000000000000000000000000000000000001010",
            "0x000000000000000000000000e7179eb096002cbda21124a840f7dcef264aa1b5",
            "0x0000000000000000000000007ee41d8a25641000661b1ef5e6ae8a00400466b0"
          ],
          "data": "0x000000000000000000000000000000000000000000000000007c7afd0c12e20000000000000000000000000000000000000000000000000580a5ddd3d73ed06d0000000000000000000000000000000000000000000014ad229938e0a55a61fe000000000000000000000000000000000000000000000005802962d6cb2bee6d0000000000000000000000000000000000000000000014ad2315b3ddb16d43fe",
          "blockHash": "0x8e01924cd8a906118e6cc1081d26359703c5b40bc950f96b5dbfff54f2aaa81b",
          "blockNumber": "0x1daa135",
          "blockTimestamp": "0x694c56c7",
          "transactionHash": "0xd37a7cdb5b70df31f9f27e449d048035e59f2a092e5f8da7e838c90b70e75f0f",
          "transactionIndex": "0x0",
          "logIndex": "0x2",
          "removed": false
        }
      ],
      "logsBloom": "0x00000004000000000000000000000000000000000000000000000000000000000000000000000000000004000000000000008000000000000000400000000020000000000000000000000080000000800000000000000000000100000000000000000000020000000000000000000800000000000000000080000000000000000000000000000000020000000400000000000200000000000000000000000000200000000000001000000000000000000000000000000000001000000000004000000000000080000001200000000000000000400000000100100800000020000000000000000000000000000000000000000000000000000000000000100000",
      "type": "0x0",
      "transactionHash": "0xd37a7cdb5b70df31f9f27e449d048035e59f2a092e5f8da7e838c90b70e75f0f",
      "transactionIndex": "0x0",
      "blockHash": "0x8e01924cd8a906118e6cc1081d26359703c5b40bc950f96b5dbfff54f2aaa81b",
      "blockNumber": "0x1daa135",
      "gasUsed": "0x135b62",
      "effectiveGasPrice": "0x66e47c13f",
      "from": "0xe7179eb096002cbda21124a840f7dcef264aa1b5",
      "to": null,
      "contractAddress": "0x2168efddb51ba92e7dfbb8af6ec480c54f3357b9"
    },
    {
      "status": "0x1",
      "cumulativeGasUsed": "0x37965",
      "logs": [
        {
          "address": "0x2168efddb51ba92e7dfbb8af6ec480c54f3357b9",
          "topics": [
            "0x4e3d7fddb72261dee09f9c9211eed05dcd10bfa87c875c25605d1b287084acaf",
            "0x0552fa8dc21c2fa907e6dd4ffe6593d06187ec60f7f86eeff3ac018f8d2eee3a"
          ],
          "data": "0x000000000000000000000000000000000000000000000000000000000000006000000000000000000000000000000000000000000000000000000000000000010000000000000000000000000000000000000000000000056bc75e2d6310000000000000000000000000000000000000000000000000000000000000000000064f7261636c650000000000000000000000000000000000000000000000000000",
          "blockHash": "0xca53e087ca5b3f7b84baf61819aa7f969cc0500a5f4d22d05b28b9a03dcb72f8",
          "blockNumber": "0x1daa136",
          "blockTimestamp": "0x694c56c8",
          "transactionHash": "0xb73bf33ea89654b11d23e74f48390b8e4079e775fb1ed86f1acd0ec8d6f48a82",
          "transactionIndex": "0x0",
          "logIndex": "0x0",
          "removed": false
        },
        {
          "address": "0x0000000000000000000000000000000000001010",
          "topics": [
            "0x4dfe1bbbcf077ddc3e01291eea2d5c70c2b422b415d95645b9adcfd678cb1d63",
            "0x0000000000000000000000000000000000000000000000000000000000001010",
            "0x000000000000000000000000e7179eb096002cbda21124a840f7dcef264aa1b5",
            "0x0000000000000000000000007ee41d8a25641000661b1ef5e6ae8a00400466b0"
          ],
          "data": "0x00000000000000000000000000000000000000000000000000165780af882500000000000000000000000000000000000000000000000005802962d6c668714f0000000000000000000000000000000000000000000014ad231eb83df2c4727e00000000000000000000000000000000000000000000000580130b5616e04c4f0000000000000000000000000000000000000000000014ad23350fbea24c977e",
          "blockHash": "0xca53e087ca5b3f7b84baf61819aa7f969cc0500a5f4d22d05b28b9a03dcb72f8",
          "blockNumber": "0x1daa136",
          "blockTimestamp": "0x694c56c8",
          "transactionHash": "0xb73bf33ea89654b11d23e74f48390b8e4079e775fb1ed86f1acd0ec8d6f48a82",
          "transactionIndex": "0x0",
          "logIndex": "0x1",
          "removed": false
        }
      ],
      "logsBloom": "0x00000000000000000000000000000000000000000000000000000000000000000000000000000000000004040000000020008000000000000000000000000020000000000000000000000080000000800000000000000000000100000000000000000000000000000000000000000000000000000000000080000000000000000000000000000000020000000400000000000800000000000000000000000000200000000000001000000000000000000000000000000000000000000000004000000000000080000001000000000000000000400000000000100800000000010000000000000000000100010000000000000000000000000000000000100000",
      "type": "0x0",
      "transactionHash": "0xb73bf33ea89654b11d23e74f48390b8e4079e775fb1ed86f1acd0ec8d6f48a82",
      "transactionIndex": "0x0",
      "blockHash": "0xca53e087ca5b3f7b84baf61819aa7f969cc0500a5f4d22d05b28b9a03dcb72f8",
      "blockNumber": "0x1daa136",
      "gasUsed": "0x37965",
      "effectiveGasPrice": "0x66e47c13f",
      "from": "0xe7179eb096002cbda21124a840f7dcef264aa1b5",
      "to": "0x2168efddb51ba92e7dfbb8af6ec480c54f3357b9",
      "contractAddress": null
    },
    {
      "status": "0x1",
      "cumulativeGasUsed": "0x6b02e",
      "logs": [
        {
          "address": "0x2168efddb51ba92e7dfbb8af6ec480c54f3357b9",
          "topics": [
            "0x4e3d7fddb72261dee09f9c9211eed05dcd10bfa87c875c25605d1b287084acaf",
            "0x2200268361e5a3a62e691c4f0a119739ca896ac053e91d473cf5e8669d0ab90b"
          ],
          "data": "0x0000000000000000000000000000000000000000000000000000000000000060000000000000000000000000000000000000000000000000000000000000000200000000000000000000000000000000000000000000000ad78ebc5ac6200000000000000000000000000000000000000000000000000000000000000000000a476f7665726e616e636500000000000000000000000000000000000000000000",
          "blockHash": "0xca53e087ca5b3f7b84baf61819aa7f969cc0500a5f4d22d05b28b9a03dcb72f8",
          "blockNumber": "0x1daa136",
          "blockTimestamp": "0x694c56c8",
          "transactionHash": "0x406286bc6e03000ada6d7cc11cdae4d64f0fd37e0a997f00175007f9b6397f51",
          "transactionIndex": "0x1",
          "logIndex": "0x2",
          "removed": false
        },
        {
          "address": "0x0000000000000000000000000000000000001010",
          "topics": [
            "0x4dfe1bbbcf077ddc3e01291eea2d5c70c2b422b415d95645b9adcfd678cb1d63",
            "0x0000000000000000000000000000000000000000000000000000000000001010",
            "0x000000000000000000000000e7179eb096002cbda21124a840f7dcef264aa1b5",
            "0x0000000000000000000000007ee41d8a25641000661b1ef5e6ae8a00400466b0"
          ],
          "data": "0x0000000000000000000000000000000000000000000000000014ab26fc0c890000000000000000000000000000000000000000000000000580130b5616056c740000000000000000000000000000000000000000000014ad23350fbea24c977e0000000000000000000000000000000000000000000000057ffe602f19f8e3740000000000000000000000000000000000000000000014ad2349bae59e59207e",
          "blockHash": "0xca53e087ca5b3f7b84baf61819aa7f969cc0500a5f4d22d05b28b9a03dcb72f8",
          "blockNumber": "0x1daa136",
          "blockTimestamp": "0x694c56c8",
          "transactionHash": "0x406286bc6e03000ada6d7cc11cdae4d64f0fd37e0a997f00175007f9b6397f51",
          "transactionIndex": "0x1",
          "logIndex": "0x3",
          "removed": false
        }
      ],
      "logsBloom": "0x00000000000000000000000000000000000000000000000000020000000000000000000000000000000004040000000000008000000000000000000000000020000000000000000000000080000000800000000000000000000100000000000000000000000000000000000000000000000000000000000080000000000000000000001000000000020000000400000000000800000000000000000000000000200000000000001000000000000000000000000008000000000000000000004000000000000080000001000000000000000000400000000000100800000000010000000000000000000000000000000000000000000000000000000000100000",
      "type": "0x0",
      "transactionHash": "0x406286bc6e03000ada6d7cc11cdae4d64f0fd37e0a997f00175007f9b6397f51",
      "transactionIndex": "0x1",
      "blockHash": "0xca53e087ca5b3f7b84baf61819aa7f969cc0500a5f4d22d05b28b9a03dcb72f8",
      "blockNumber": "0x1daa136",
      "gasUsed": "0x336c9",
      "effectiveGasPrice": "0x66e47c13f",
      "from": "0xe7179eb096002cbda21124a840f7dcef264aa1b5",
      "to": "0x2168efddb51ba92e7dfbb8af6ec480c54f3357b9",
      "contractAddress": null
    },
    {
      "status": "0x1",
      "cumulativeGasUsed": "0x9e730",
      "logs": [
        {
          "address": "0x2168efddb51ba92e7dfbb8af6ec480c54f3357b9",
          "topics": [
            "0x4e3d7fddb72261dee09f9c9211eed05dcd10bfa87c875c25605d1b287084acaf",
            "0x090f9d8dae42ff6283c5fbee7e718eae1bffa83ba7a566731dd5df7103c52191"
          ],
          "data": "0x0000000000000000000000000000000000000000000000000000000000000060000000000000000000000000000000000000000000000000000000000000000400000000000000000000000000000000000000000000000821ab0d4414980000000000000000000000000000000000000000000000000000000000000000000e50726f746f636f6c2052756c6573000000000000000000000000000000000000",
          "blockHash": "0xca53e087ca5b3f7b84baf61819aa7f969cc0500a5f4d22d05b28b9a03dcb72f8",
          "blockNumber": "0x1daa136",
          "blockTimestamp": "0x694c56c8",
          "transactionHash": "0x29a5b7e87ff121ccfe9ad2538db595e5df07334cc005658af6bc0ba9de53f0e7",
          "transactionIndex": "0x2",
          "logIndex": "0x4",
          "removed": false
        },
        {
          "address": "0x0000000000000000000000000000000000001010",
          "topics": [
            "0x4dfe1bbbcf077ddc3e01291eea2d5c70c2b422b415d95645b9adcfd678cb1d63",
            "0x0000000000000000000000000000000000000000000000000000000000001010",
            "0x000000000000000000000000e7179eb096002cbda21124a840f7dcef264aa1b5",
            "0x0000000000000000000000007ee41d8a25641000661b1ef5e6ae8a00400466b0"
          ],
          "data": "0x0000000000000000000000000000000000000000000000000014ac958a0682000000000000000000000000000000000000000000000000057ffe602f192e67fd0000000000000000000000000000000000000000000014ad2349bae59e59207e0000000000000000000000000000000000000000000000057fe9b3998f27e5fd0000000000000000000000000000000000000000000014ad235e677b285fa27e",
          "blockHash": "0xca53e087ca5b3f7b84baf61819aa7f969cc0500a5f4d22d05b28b9a03dcb72f8",
          "blockNumber": "0x1daa136",
          "blockTimestamp": "0x694c56c8",
          "transactionHash": "0x29a5b7e87ff121ccfe9ad2538db595e5df07334cc005658af6bc0ba9de53f0e7",
          "transactionIndex": "0x2",
          "logIndex": "0x5",
          "removed": false
        }
      ],
      "logsBloom": "0x00000010000000000000000000000000000000000000000000000000000000000000000000000000000004040000000000008000000000000000000000000020000000000000000000000080000000800000000000000000000100000000000000000000000000000000000000000000000000000000000080000000000000000000000000000000020000000400000000000800000000000000000000000000200000000000001000000000000000000000000000000000000000000000004000000000000080000021000000000000000080400000000000100800000000010000000000000000000000000000000000000000000000000000000000100000",
      "type": "0x0",
      "transactionHash": "0x29a5b7e87ff121ccfe9ad2538db595e5df07334cc005658af6bc0ba9de53f0e7",
      "transactionIndex": "0x2",
      "blockHash": "0xca53e087ca5b3f7b84baf61819aa7f969cc0500a5f4d22d05b28b9a03dcb72f8",
      "blockNumber": "0x1daa136",
      "gasUsed": "0x33702",
      "effectiveGasPrice": "0x66e47c13f",
      "from": "0xe7179eb096002cbda21124a840f7dcef264aa1b5",
      "to": "0x2168efddb51ba92e7dfbb8af6ec480c54f3357b9",
      "contractAddress": null
    },
    {
      "status": "0x1",
      "cumulativeGasUsed": "0xd1e62",
      "logs": [
        {
          "address": "0x2168efddb51ba92e7dfbb8af6ec480c54f3357b9",
          "topics": [
            "0x4e3d7fddb72261dee09f9c9211eed05dcd10bfa87c875c25605d1b287084acaf",
            "0x0d995b913f986203f698eff729454cb53ab4c844b323a44b4a13bb098b2601fe"
          ],
          "data": "0x0000000000000000000000000000000000000000000000000000000000000060000000000000000000000000000000000000000000000000000000000000000800000000000000000000000000000000000000000000001043561a8829300000000000000000000000000000000000000000000000000000000000000000001244697370757465205265736f6c7574696f6e0000000000000000000000000000",
          "blockHash": "0xca53e087ca5b3f7b84baf61819aa7f969cc0500a5f4d22d05b28b9a03dcb72f8",
          "blockNumber": "0x1daa136",
          "blockTimestamp": "0x694c56c8",
          "transactionHash": "0x125719a8709ea4097539997736c8558d87f7df8308ccea9ad3b1b2dba40f70d9",
          "transactionIndex": "0x3",
          "logIndex": "0x6",
          "removed": false
        },
        {
          "address": "0x0000000000000000000000000000000000001010",
          "topics": [
            "0x4dfe1bbbcf077ddc3e01291eea2d5c70c2b422b415d95645b9adcfd678cb1d63",
            "0x0000000000000000000000000000000000000000000000000000000000001010",
            "0x000000000000000000000000e7179eb096002cbda21124a840f7dcef264aa1b5",
            "0x0000000000000000000000007ee41d8a25641000661b1ef5e6ae8a00400466b0"
          ],
          "data": "0x0000000000000000000000000000000000000000000000000014adca377ab2000000000000000000000000000000000000000000000000057fe9b3998e5d5c7f0000000000000000000000000000000000000000000014ad235e677b285fa27e0000000000000000000000000000000000000000000000057fd505cf56e2aa7f0000000000000000000000000000000000000000000014ad237315455fda547e",
          "blockHash": "0xca53e087ca5b3f7b84baf61819aa7f969cc0500a5f4d22d05b28b9a03dcb72f8",
          "blockNumber": "0x1daa136",
          "blockTimestamp": "0x694c56c8",
          "transactionHash": "0x125719a8709ea4097539997736c8558d87f7df8308ccea9ad3b1b2dba40f70d9",
          "transactionIndex": "0x3",
          "logIndex": "0x7",
          "removed": false
        }
      ],
      "logsBloom": "0x00000000000000000000000000000000000000000000000000000000000000000000000000000000000004040000000000008000000000000000000000000020000000000000000000000080000000800000000000000000000100000000000000000000000000000000000000000000000000000000000080000000000000000000000000000000020000000400000000000800000000000000000000000000200000000000001000000000000000000000000000000000000000000000004000000000800080000001000000000000000000400000000000100802000000010000000000000000000000000010000000000000000000000000000000100000",
      "type": "0x0",
      "transactionHash": "0x125719a8709ea4097539997736c8558d87f7df8308ccea9ad3b1b2dba40f70d9",
      "transactionIndex": "0x3",
      "blockHash": "0xca53e087ca5b3f7b84baf61819aa7f969cc0500a5f4d22d05b28b9a03dcb72f8",
      "blockNumber": "0x1daa136",
      "gasUsed": "0x33732",
      "effectiveGasPrice": "0x66e47c13f",
      "from": "0xe7179eb096002cbda21124a840f7dcef264aa1b5",
      "to": "0x2168efddb51ba92e7dfbb8af6ec480c54f3357b9",
      "contractAddress": null
    },
    {
      "status": "0x1",
      "cumulativeGasUsed": "0x10551f",
      "logs": [
        {
          "address": "0x2168efddb51ba92e7dfbb8af6ec480c54f3357b9",
          "topics": [
            "0x4e3d7fddb72261dee09f9c9211eed05dcd10bfa87c875c25605d1b287084acaf",
            "0x4014de274a42b496b04b712fa2b14bc48bcbb6fb23a8cc3cd8dff5beea078858"
          ],
          "data": "0x00000000000000000000000000000000000000000000000000000000000000600000000000000000000000000000000000000000000000000000000000000010000000000000000000000000000000000000000000000002b5e3af16b18800000000000000000000000000000000000000000000000000000000000000000009436f6d6d756e6974790000000000000000000000000000000000000000000000",
          "blockHash": "0xca53e087ca5b3f7b84baf61819aa7f969cc0500a5f4d22d05b28b9a03dcb72f8",
          "blockNumber": "0x1daa136",
          "blockTimestamp": "0x694c56c8",
          "transactionHash": "0x9c3575ec36043a24b196f14391b405c94cded113427562ba798484c2e60a4b15",
          "transactionIndex": "0x4",
          "logIndex": "0x8",
          "removed": false
        },
        {
          "address": "0x0000000000000000000000000000000000001010",
          "topics": [
            "0x4dfe1bbbcf077ddc3e01291eea2d5c70c2b422b415d95645b9adcfd678cb1d63",
            "0x0000000000000000000000000000000000000000000000000000000000001010",
            "0x000000000000000000000000e7179eb096002cbda21124a840f7dcef264aa1b5",
            "0x0000000000000000000000007ee41d8a25641000661b1ef5e6ae8a00400466b0"
          ],
          "data": "0x0000000000000000000000000000000000000000000000000014aad9d0af7d000000000000000000000000000000000000000000000000057fd505cf561815310000000000000000000000000000000000000000000014ad237315455fda547e0000000000000000000000000000000000000000000000057fc05af5856898310000000000000000000000000000000000000000000014ad2387c01f3089d17e",
          "blockHash": "0xca53e087ca5b3f7b84baf61819aa7f969cc0500a5f4d22d05b28b9a03dcb72f8",
          "blockNumber": "0x1daa136",
          "blockTimestamp": "0x694c56c8",
          "transactionHash": "0x9c3575ec36043a24b196f14391b405c94cded113427562ba798484c2e60a4b15",
          "transactionIndex": "0x4",
          "logIndex": "0x9",
          "removed": false
        }
      ],
      "logsBloom": "0x0000000000000000000000000000000000000000000000000000000000000000000000000000000000000404000000000000800000000000000000000000002000000000000000000000008000000080000000000000000000010000000000000000000000000000000000000000000000000000000000008000000000000000000000000000000002000000040000000000080000000000000000000000000020000010000000100000000000000000000000000000000000000000000000c000000000000080000001000000000000000000400000000000100800010000010000000000000000000000000000000000000000000000000000000000100000",
      "type": "0x0",
      "transactionHash": "0x9c3575ec36043a24b196f14391b405c94cded113427562ba798484c2e60a4b15",
      "transactionIndex": "0x4",
      "blockHash": "0xca53e087ca5b3f7b84baf61819aa7f969cc0500a5f4d22d05b28b9a03dcb72f8",
      "blockNumber": "0x1daa136",
      "gasUsed": "0x336bd",
      "effectiveGasPrice": "0x66e47c13f",
      "from": "0xe7179eb096002cbda21124a840f7dcef264aa1b5",
      "to": "0x2168efddb51ba92e7dfbb8af6ec480c54f3357b9",
      "contractAddress": null
    }
  ],
  "libraries": [],
  "pending": [],
  "returns": {},
  "timestamp": 1766610633187,
  "chain": 80002,
  "commit": null
}